:020000040000FA
:08000000F29E0101FB6A11D020
:0400080010EF04F001
:06002A00086A700ED36E9F
:100030009B8CD3A4FED7D2A2FED739EC02F002DA11
:10004000000EABEC01F01C6A1D6A050E1E6E106AF4
:100050001C2E04D01D2E02D01E4E58D089D9E86621
:10006000F7D71450010AF3E11750010AF0E1D8D98B
:10007000D80AEDE1010EDDD9000EDFD9000EDDD981
:10008000010EDBD9D80ED9D9D6D9106A71D9E86654
:10009000FDD71450000AD8B48BEF00F01450020AB8
:1000A000D8B46DEF00F01450030AD8B49DEF00F0FF
:1000B0001450040AD8B4B4EF00F01450050AD8B4B0
:1000C00038EF01F01450060AD8B451EF01F0145083
:1000D000070AD8B47BEF01F0D8D71750010AD5E151
:1000E0009FD9D80AD2E1020E19EC02F015501DEC8E
:1000F00002F016501DEC02F0010E1DEC02F0D80EBD
:100100001DEC02F01BEC02F0ACA2FED7AC9AAB984F
:10011000AB9E12EF04F0000E19EC02F015501DEC2E
:1001200002F016501DEC02F017501DEC02F078D9C9
:1001300084D9172EFCD77FD9A8D7F86A1650F76E46
:100140001550F66E6DD9176E030E19EC02F01550AE
:1001500074D9165072D9175070D90900F5506DD95D
:10016000172EFBD768D991D7F86A1650F76E15503D
:10017000196E000EF85CD8A406D0080EF75CD8A45F
:1001800002D0000E195CD8B002D0040E64D0195011
:10019000C00BF66E11EE00F00A00400E006E0B0070
:1001A000F5CFE6FF002EFBD7186A11EE00F01950CC
:1001B0003F0BE12635D9E66E182A185019243F0B5B
:1001C00003E0172EF7D704D0170602E0030E43D042
:1001D000C00EF61611EE00F00A00400E006E0B0085
:1001E000F550E66204D0002EFAD7020E34D0C00ECD
:1001F000F616A68EA69CA684A688550EA76EAA0EF5
:10020000A76EA682A69411EE00F00A00040E016EFD
:10021000100E006EE6CFF5FF0F00002EFBD7A68E66
:10022000A69CA684A698550EA76EAA0EA76EA682B7
:10023000A694012EEDD7C00EF61611EE00F00A00BE
:10024000400E006E0B00F550E66204D0002EFAD787
:10025000000E01D0010E006E040EEBD81550EDD843
:100260001650EBD8010EE9D80050E7D8E4D80DD7E6
:100270001550A96E16501F6ED3D8176E050ED9D81B
:100280001550DBD81650D9D81750D7D8A69EA69CA3
:10029000A680A850D2D8A94A1F2A172EF9D7CBD8A2
:1002A000F4D61550A96E16501F6EBAD8A86E006EFF
:1002B000A69EA69CA684550EA76EAA0EA76EA68221
:1002C000A6B2FED7A694A680A850001806E1A94AB7
:1002D0001F2A172EEAD7000E01D0010E006E060E5F
:1002E000A8D81550AAD81650A8D8010EA6D80050E4
:1002F000A4D8A1D8CAD6070E19EC02F015509DD883
:1003000016509BD8320E99D8F86A080EF76E000E78
:10031000F66E200E006E0900F5508FD8002EFBD728
:10032000300EF86E000EF76E000EF66E100E006EB8
:100330000900F55082D8002EFBD73F0EF86EFF0E55
:10034000F76EFE0EF66E0900F55077D80800F550EE
:1003500074D871D89AD6006EFF0E6BD815506DD830
:1003600016506BD8010E69D8005067D864D81200B7
:1003700010A009D01A2E07D01B2E05D0AE50AB9876
:10038000AB88120E19D09EAA09D0ABB40BD0ABB279
:100390000CD010BA0ED0AE5012D810AA010C1266B2
:1003A0000AD0000CAE50100E07D0AB98AB88110EDF
:1003B00003D0130E01D0140ECEDF106A010C10B062
:1003C00008D0146E126E1080116A1A6A150E1B6E18
:1003D00026D010B204D0156E1226108220D010B490
:1003E00004D0166E122610841AD010B604D0176EE0
:1003F0001226108614D010B80FD0006E11EE40F007
:100400001150E12600501226E76E112A11501718DC
:10041000D8A405D0108803D01226116A108A1200C1
:1004200010AA06D021EE40F01150D926112ADF5033
:100430001200136A02D01350000813269EA8FED79C
:10044000AD6E12009D9A9D987F96B896AC84010E71
:10045000AF6EAB8EAC8AAB889E9A9E98136A1200E0
:10046000010E036E640E03D8032EFCD71200026E39
:1004700002D0010E026E150E016EC40E006E002E2B
:0C048000FED7012EFCD7022EF6D712008A
:10080000020005000301456D756C61746F72655FD0
:04081000455000004F
:020814000000E2
:1008200014EF04F015EF04F01100186A196A1A6A3F
:100830001B6A030E7E6E7F6A9468898492948998FD
:100840009298899A929A8A8893988A8C939C9AD83B
:100850002DD91C6AC1D8E866FDD72050000AD8B44B
:1008600049EF04F02050080AD8B45BEF04F02050A0
:100870000B0AD8B45CEF04F089A40AD02050090A0E
:10088000D8B478EF04F020500A0AD8B48FEF04F0FF
:10089000E0D7000E4DEC05F0215051EC05F0225050
:1008A00051EC05F0235051EC05F0EED8FAD8232E88
:1008B000FCD7F5D8CED7FF00E7D8E85004E0E8062B
:1008C00006E0FF0E08D0E0D84AD8000E04D0DCD8ED
:1008D00052D8010E00D0106E0B0EDFD82150E1D897
:1008E0002250DFD8010EDDD81050DBD8D8D8B1D7D0
:1008F000D3EC04F0C9D8236E090E4DEC05F021505D
:10090000D0D82250CED82350CCD88A9C0000825018
:10091000C8D83CD8232EFBD78A8CC1D89AD789B4A3
:1009200002D0010E0ED0D3EC04F08A8C946AACD8BD
:100930008B6E8A9800008A8829D8232EF8D794686D
:10094000000E106E0A0EA9D82150ABD82250A9D89B
:10095000010EA7D81050A5D8A2D87BD77AD7946813
:100960008A88E8A003D08A9C8994120089848A8CA2
:10097000640EB1D81200E8A003D01880898A02D092
:100980001890899A89982B682C68898818B004D0A7
:10099000898A0000899A03D0899A0000898A2B3EAF
:1009A00012002C2A120022502C5C02E121502B5CF8
:1009B000D8B4120002E2EADFF6D7E4DFF4D7106E13
:1009C000FF0E6BD821506DD822506BD8010E69D81C
:1009D000105067D864D812001CA009D0262E07D06A
:1009E000272E05D0AE50AB98AB88120E19D09EAA18
:1009F00009D0ABB40BD0ABB20CD01CBA0ED0AE50F9
:100A000012D81CAA010C1E660AD0000CAE50100EA3
:100A100007D0AB98AB88110E03D0130E01D0140E83
:100A2000CEDF1C6A010C1CB008D0206E1E6E1C802C
:100A30001D6A266A150E276E26D01CB204D0216EC0
:100A40001E261C8220D01CB404D0226E1E261C84BC
:100A50001AD01CB604D0236E1E261C8614D01CB8D7
:100A60000FD0106E11EE00F01D50E12610501E2622
:100A7000E76E1D2A1D502318D8A405D01C8803D06A
:100A80001E261D6A1C8A12001CAA06D021EE00F048
:100A90001D50D9261D2ADF5012001F6A02D01F5098
:100AA00000081F269EA8FED7AD6E12009D9A9D9845
:100AB0007F96B896AC84010EAF6EAB8EAC8AAB88D5
:100AC0009E9A9E981F6A1200010E136E640E03D840
:100AD000132EFCD71200126E02D0010E126E150EEC
:100AE000116EC40E106E102EFED7112EFCD7122ED2
:040AF000F6D7120023
:020000040030CA
:0100010038C6
:0100020018E5
:010003001EDE
:01000500807A
:010006008178
:0100080003F4
:01000900C036
:01000A0003F2
:01000B00A054
:01000C0003F0
:01000D0040B2
:0200000400F00A
:1000000001020300000000000000000000000000EA
:1000100000000000000000000000000000000000E0
:1000200000000000000000000000000000000000D0
:1000300000000000000000000000000000000000C0
:1000400000000000000000000000000000000000B0
:1000500000000000000000000000000000000000A0
:100060000000000000000000000000000000000090
:100070000000000000000000000000000000000080
:100080000000000000000000000000000000000070
:100090000000000000000000000000000000000060
:1000A0000000000000000000000000000000000050
:1000B0000000000000000000000000000000000040
:1000C0000000000000000000000000000000000030
:1000D0000000000000000000000000000000000020
:1000E0000000000000000000000000000000000010
:1000F00000000000000000000000000000FDFEFF06
:00000001FF
